:020000040800F2
:10000000B0070020A1010008E1080008D908000895
:10001000DD080008F5070008A7110008000000002F
:100020000000000000000000000000002D0B000890
:10003000F90700080000000071090008450C0008DD
:10004000BB010008BB010008BB010008BB010008A0
:10005000BB010008BB010008BB010008BB01000890
:10006000BB010008BB010008BB010008BB01000880
:10007000BB010008BB010008BB010008BB01000870
:10008000BB010008BB010008BB010008BB01000860
:10009000BB010008BB010008BB010008BB01000850
:1000A000BB010008BB010008BB010008BB01000840
:1000B000B10C0008DD0C0008FD0C0008BB010008B5
:1000C000BB010008BB010008BB010008BB01000820
:1000D000BB010008ED0E0008BB010008610F00081D
:1000E000BB010008BB010008BB010008BB01000800
:1000F000BB010008BB010008BB010008BB010008F0
:10010000BB010008BB010008BB010008BB010008DF
:10011000050E0008790E0008BB010008BB010008AD
:10012000BB010008BB010008BB010008BB010008BF
:10013000BB010008BB010008BB010008BB010008AF
:10014000BB010008BB010008BB010008BB0100089F
:10015000BB010008BB010008BB010008BB0100088F
:10016000BB010008BB010008BB010008BB0100087F
:10017000BB010008BB010008BB010008BB0100086F
:10018000BB010008BB010008DFF810D000F0D2FA74
:10019000004800479F1F0008AFF30080B007002011
:1001A0000648804706480047FEE7FEE7FEE7FEE711
:1001B000FEE7FEE7FEE7FEE7FEE7FEE7490C000884
:1001C0008901000840EA01039B0703D009E008C940
:1001D000121F08C0042AFAD203E011F8013B00F80C
:1001E000013B521EF9D2704730B505462A460B46F0
:1001F00012F8010B13F8014B08B1A042F8D01CB162
:10020000002802D06D1CF1E7284630BD421C10F8D2
:10021000011B0029FBD1801A70472DE9FE4F804653
:1002200081EA0300C00F0C46009021F0004123F04A
:100230000045B8EB0200A94105D240462146904650
:100240001C460B46024623F00040104347D0270DC2
:10025000C7F30A00C3F30A510290401A01904028E4
:100260006BDAC3F3130040F4801B0098924620B170
:100270000023D2EB030A63EB0B0B01985946C0F144
:100280004002504600F098F906460D465046594641
:10029000019A00F0B0F910EB08006141002487EAF0
:1002A000115284EAE7731A4340D0009A62B3019A6C
:1002B000012A4FEA075215DC001B61EB02014FF0E7
:1002C000004202EA0752CDE90042001C41F58011CC
:1002D00032462B4600F0B0F903B0BDE8F08F40463F
:1002E0002146F9E7001B61EB0201001C41F5801378
:1002F00000185B412018A2F5001747EB030140EA04
:10030000D570B6196D4111E06D084FEA360645EA21
:10031000C0754FEA0752001B61EB0201001C41F55A
:10032000801149084FEA30000019514132462B46EE
:1003300003B0BDE8F04F00F070B900980122400012
:100340000023D0EB020263EBE073009821464FEAF2
:10035000E074B8EB000061EB0401E9E783F00043CF
:100360005BE781F0004158E72DE9FE4F81EA030485
:1003700004F0004421F0004100944FF0000B23F002
:10038000004350EA01045ED052EA03045BD0C3F399
:100390000A54C1F30A552C44A4F2F3340194A0FB8F
:1003A0000254C1F3130141F48011C3F3130343F466
:1003B000801301FB024400FB034E840A970A44EABF
:1003C000815447EA8357A4FB076802958D0A05FB11
:1003D00007854FEA932C04FB0C542705029D4FEA36
:1003E000065847EA1637B5EB08056EEB070C870E83
:1003F000920E47EA811742EA8312A7FB0201B6EB8D
:100400000B0164EB00042B0D43EA0C335E1844EB44
:100410001C50DA465146E7FB0201C5F313044FEACC
:100420000B3343EA14534FEA0432019C43EA0603B8
:10043000A4F10C040294009CCDE900B400F0FCF897
:1004400003B0BDE8F08F00200146F9E72DE9F04D3B
:1004500081EA030404F0004B21F0004514464FF0FC
:10046000000A23F0004150EA050220D054EA0102BC
:100470001DD0C5F30A570246C5F31303C1F3130099
:10048000C1F30A5640F4801543F48013A7EB060825
:10049000101BD64608F2FD3873EB050002D308F1B5
:1004A000010801E092185B41B8F1000F03DA002067
:1004B0000146BDE8F08D00204FF4801106468446C9
:1004C0000EE0171B73EB050705D3121B63EB050347
:1004D00006434CEA010C49084FEA300092185B4190
:1004E00050EA0107EDD152EA030012D082EA04007B
:1004F00083EA0501084305D0101BAB4106D2012257
:10050000002306E000224FF0004302E06FF00102FA
:1005100053101AEB06004CEB085110EB0A0041EBAC
:100520000B01BDE8F04D00F078B830B50B46014640
:1005300000202022012409E021FA02F59D4205D382
:1005400003FA02F5491B04FA02F52844151EA2F12C
:100550000102F1DC30BD2DE9F05F05460020924636
:100560009B4688460646814640241BE02846414675
:100570004746224600F02FF853465A46C01A91418A
:1005800010D311461846224600F016F82D1A67EBD4
:1005900001084F4622460120002100F00DF817EB1C
:1005A00000094E41201EA4F10104DFDC484631461B
:1005B0002A464346BDE8F09F202A04DB203A00FA91
:1005C00002F1002070479140C2F1200320FA03F3AA
:1005D000194390407047202A04DB203A21FA02F0A8
:1005E0000021704721FA02F3D040C2F1200291406D
:1005F000084319467047202A06DBCB17203A41FAF8
:1006000002F043EAE07306E041FA02F3D040C2F19F
:100610002002914008431946704710B5141E73F12B
:10062000000408DA401C41F1000192185B411A43B2
:1006300001D120F0010010BD2DE9F04D92469B46FE
:1006400011B1B1FA81F202E0B0FA80F220329046A4
:10065000FFF7B2FF04460F4640EA0A0041EA0B01E9
:1006600053465A46084313D0114653EA010019D0A5
:10067000C8F140025046FFF7AEFF05460E46504611
:1006800059464246FFF798FF084305D0012004E091
:1006900020463946BDE8F08D0020054346EAE07665
:1006A0002C4337430A986305E40AA0EB08000022B4
:1006B000FD0A44EA47540A3002D500200146E9E722
:1006C000010510196941DDE9084500196941BDE8D6
:1006D000F04DA2E7C1F30A52C1F3130140F2FF3318
:1006E00041F480119A4202DA00200146704740F23C
:1006F00033439A42A2F2334202DC5242FFF76BBF0D
:10070000FFF75ABF30B5041E71F1000404DB4FF04F
:100710000044404264EB0101141E73F1000405DB48
:100720001C464FF00043524263EB0403994208BF5A
:10073000904230BD064C074D06E0E06840F00103F2
:1007400094E8070098471034AC42F6D3FFF720FD39
:10075000C0400008E04000081CB50121084600F038
:1007600009F90220009001208DF8040000208DF886
:10077000060002208DF8050001208DF8070069466B
:100780000E4800F03AF80420009001208DF8040093
:1007900000208DF8060002208DF8050001208DF85C
:1007A00007006946054800F028F80221034800F0D8
:1007B00091F80421014800F08DF81CBD00000240B2
:1007C000024600EBD2735B10A0EB4303D9B231B900
:1007D000074A526982F00202054B5A6107E001297B
:1007E00005D1034A526982F00402014B5A617047F5
:1007F0000000024000BFFEE77047F0B50A46002146
:100800000023002400BF3DE0012505FA01F315682F
:1008100005EA03049C4234D105684F000326BE401C
:10082000B543056015794E00B5400668354305604F
:100830001579012D02D01579022D16D185684F004A
:100840000326BE40B543856055794E00B5408668A5
:1008500035438560456801268E40B543456045684F
:1008600096798E40B6B235434560C5684F00032681
:10087000BE40B543C560D5794E00B540C668354326
:10088000C560491C1029BFD3F0BDF0B5002300247A
:100890004D07ED0E02FA05F3CE1000F1200555F8D4
:1008A00026504E07F70E0F26BE40B543CF1000F17D
:1008B000200646F82750CE1000F1200555F82650A6
:1008C00045EA0304CE1000F1200545F82640F0BDAE
:1008D000418370470183704700BFFEE700BFFEE71A
:1008E0007047000070B5002100230F22C4781CB3AC
:1008F000174C246804F4E064C4F5E064C4F30721F1
:10090000C1F10404E3B20A4144789C40E1B2847826
:10091000144021430C07210E0E4C057861550478D4
:1009200004F01F050124AC4005786D11AD0005F100
:10093000E025C5F8004109E0047804F01F05012412
:10094000AC40054D0678761145F8264070BD000094
:100950000CED00E000E400E080E100E0024901432A
:10096000024A1160704700000000FA050CED00E03B
:100970007047000029B1064A12680243044B1A600E
:1009800004E0034A12688243014B1A60704700007A
:100990003038024029B1064A12680243044B1A60FB
:1009A00004E0034A12688243014B1A60704700005A
:1009B0004038024029B1064A12680243044B1A60CB
:1009C00004E0034A12688243014B1A60704700003A
:1009D00044380240F0B50021002200240225002600
:1009E0000223324F3F6807F00C0121B1042905D0E2
:1009F000082937D105E02E4F076036E02D4F0760FC
:100A000033E02A4F3F1F3F68C7F38056274F3F1FF1
:100A10003F6807F03F036EB1264FB7FBF3F7DFF8EF
:100A20008CC0ACF1040CDCF800C0CCF3881C07FBD4
:100A30000CF40CE01E4FB7FBF3F7DFF870C0ACF11D
:100A4000040CDCF800C0CCF3881C07FB0CF4174F37
:100A50003F1F3F68C7F301477F1C7D00B4FBF5F7DC
:100A6000076002E0124F076000BF00BF0F4F3F68F2
:100A700007F0F0010909104F7A5C0768D74047601A
:100A80000A4F3F6807F4E051890A0B4F7A5C4768C8
:100A9000D7408760054F3F6807F46041490B064F18
:100AA0007A5C4768D740C760F0BD00000838024054
:100AB0000024F40000127A000000002021B1028816
:100AC00042F04002028004E002884FF6BF731A40F1
:100AD000028070470246002013890B400BB10120B1
:100AE00000E0002070470146888970478181704787
:100AF00010B50022028802F441520B884C8823432F
:100B00008C882343CC8823430C8923434C8923437B
:100B10008C892343CC8923431A430280838B4FF271
:100B2000FF74234083830B8A038210BD704700004B
:100B30000CB50020019000903448006840F48030EB
:100B40003249086000BF3148006800F4003000906E
:100B50000198401C0190009818B90198B0F5A04F79
:100B6000F1D12A48006800F4003010B10120009053
:100B700001E0002000900098012846D12348403031
:100B8000006840F0805021494031086020480068EA
:100B900040F440401E4908601C48083000681B496A
:100BA000083108600846006840F4004008600846C4
:100BB000006840F4A05008601648091F0860081F2C
:100BC000006840F08070091F086000BF0F4800688F
:100BD00000F000700028F9D040F205700E4908605E
:100BE0000A480830006820F003000849083108600E
:100BF0000846006840F00200086000BF0348083063
:100C0000006800F00C000828F8D10CBD0038024044
:100C10000070004008544007003C0240042808D1FE
:100C20004FF0E021096941F004014FF0E022116129
:100C300007E04FF0E021096921F004014FF0E022C4
:100C4000116170477047000010B51548006840F406
:100C50007000134908601348006840F00100114912
:100C6000086000200F49083108600E4800680E49EE
:100C700008400C4908600D48091D0860081F0068FD
:100C800020F48020091F0860002006490C3108600C
:100C9000FFF74EFF4FF0006001498039086010BD3A
:100CA00088ED00E000380240FFFFF6FE103000241F
:100CB00010B50121880700F046F810B1032006495D
:100CC00008700121880700F02FF800214FF08040C4
:100CD00000F02DF810BD00005800002010B50121D3
:100CE000054800F030F810B10120FFF769FD01213F
:100CF000014800F019F810BD0004004010B50121B2
:100D0000074800F020F810B10320064908700121BF
:100D1000034800F009F80021014800F008F810BD70
:100D20000008004098030020CA430282704721B1A6
:100D3000028842F00102028004E002884FF6FE734E
:100D40001A400280704730B502460020002300247C
:100D5000158A05EA0103958905EA010413B10CB16E
:100D6000012000E0002030BD1AB183890B4383814C
:100D700002E083898B4383817047416270470000A2
:100D800000220288184B98420ED0184B98420BD084
:100D9000B0F1804F08D0164B984205D0154B9842C1
:100DA00002D0154B984204D14FF68F731A404B88EE
:100DB0001A43124B984207D0114B984204D04FF679
:100DC000FF431A400B891A4302804B68C3620B88A9
:100DD0000385054B984202D0044B984201D18B7A8F
:100DE0000386012383827047000001400004014014
:100DF0000004004000080040000C004000100040CB
:100E00000014004070B5002540F22551174800F04D
:100E100007F950B3154800F0BDF9C4B21448007882
:100E200003281DD012480089B0F5C87F15DA0021CB
:100E30001048FFF7A2FF0E480078022803D10121D5
:100E40000C48FFF774FF0A4801890089401C084AD2
:100E5000108110464068445402E0032004490870A1
:100E600040F22551014800F0B3F870BD004C00403D
:100E7000980300200008004010B5002440F22551DE
:100E8000174800F0CDF848B3164800780A280BDA66
:100E9000134800F07FF9C1B2124802780078401C74
:100EA000104B1870104881540E4800780A2810DB47
:100EB0000A220D49052001F0A1FE00200949087011
:100EC000002404E0002008490855601CC4B20A2C24
:100ED000F8DB40F22551024800F07AF810BD00001E
:100EE00000500040100000204C00002010B50024ED
:100EF00040F22551174800F093F848B3164800789F
:100F00000A280BDA134800F045F9C1B212480278FA
:100F10000078401C104B1870104881540E4800781F
:100F20000A2810DB0A220D49012001F067FE00208B
:100F300009490870002404E0002008490855601C95
:100F4000C4B20A2CF8DB40F22551024800F040F808
:100F500010BD000000100140100000204C000020D7
:100F600070B5002540F22551174800F059F850B3EC
:100F7000154800F00FF9C4B21448007803281DD0BA
:100F800012480089642816DA00214FF08040FFF7EC
:100F9000F4FE0E480078022803D101214007FFF734
:100FA000C6FE0A4801890089401C084A1081104683
:100FB0004068445402E003200449087040F225517F
:100FC000014800F005F870BD0048004058000020BE
:100FD00010B50022002340F66A14A14200D100BFE0
:100FE0000A1201249440A3B2DC43048010BD21B155
:100FF000828942F40052828104E082894DF6FF73B7
:101000001A408281704702460020B1F5007F00D16E
:1010100000BF13880B400BB1012000E00020704797
:1010200070B50246002400230025002040F66A1611
:10103000B14200D100BFC1F3421501F01F030126E8
:1010400006FA03F3012D02D19689334006E0022D02
:1010500002D1168A334001E0968A33400C120126F1
:1010600006FA04F41688344013B10CB1012000E0F4
:10107000002070BDF0B503460024002600250020A6
:1010800040F66A17B94200D100BF1846C1F34214B6
:1010900001F01F06012707FA06F5012C01D10C30DB
:1010A00004E0022C01D1103000E014301AB10768BE
:1010B0002F43076002E00768AF430760F0BD000000
:1010C0002DE9FF4705460E460024A14600BFA04675
:1010D000B08900B100BF2C8A24F44054F088044346
:1010E0002C82AC8941F20C608443B088318908437A
:1010F000718908430443AC81AC8A24F44074B089FC
:101100000443AC826846FFF765FC2048854202D064
:101110001F48854202D1DDF80C9001E0DDF808900F
:10112000A88900F4004040B109EBC90000EB0910A8
:1011300031684900B0FBF1F707E009EBC90000EBAB
:10114000091031688900B0FBF1F76420B7FBF0F0BB
:1011500004012009642101FB1078A88900F40040F3
:1011600040B1322000EBC800B0FBF1F000F0070006
:10117000044308E0322000EB08106421B0FBF1F0DA
:1011800000F00F0004432C81BDE8FF8700100140F0
:101190000014014001468888C0F308007047C1F37D
:1011A00008028280704700BFFEE700000FB4054BC5
:1011B00010B503A9044A029800F0EEF810BC5DF8DF
:1011C00014FB00008D1F0008480000200FB4084BDE
:1011D00010B504A902AA039800F0DEF8044602A99B
:1011E000002000F05CFC204610BC5DF814FB000001
:1011F0009F1A000802E008C8121F08C1002AFAD18D
:1012000070477047002001E001C1121F002AFBD186
:10121000704700002DE9FF5F82B00021DDE9043056
:10122000020DDDF840B0034318D044F61050A2F28E
:10123000FF3242431514119801281FD0A5EB0B0073
:10124000401C5FEA000A4FF000064E4FDFF838916D
:10125000B046504615D5CAF1000413E01198012498
:101260004AA3012801D16FEA0B010298119AC0E943
:101270000031C0E9024206B0BDE8F09FCBF10000AA
:10128000DFE704460021404A491842EB0450CDE90B
:10129000001012E0E00707D032463B464046494680
:1012A000FFF762F88046894632463B4610461946AB
:1012B000FFF75AF806460F466410002CEAD1DDE924
:1012C0000401DDE90023BAF1000F06DAFFF74CF85C
:1012D00042464B46FFF748F805E0FFF7B7F84246AD
:1012E0004B46FFF7B3F804460E460022284BFFF7A3
:1012F00009FA03D84FF0FF30014607E00022254BE2
:1013000020463146FEF789FFFFF7E4F9102409E093
:10131000002C0ADB0A220023FFF71DF9039B303261
:101320001A55641E50EA0102F2D1641C039AC4F1FA
:1013300011031444119A012A03D0012208430DD14C
:101340000AE0084304D000204FF0110B119072E71F
:10135000A3EB0B056D1E0DE05B4504DD4FF00002B5
:1013600005F1010504E003DA4FF00002A5F10105E3
:10137000002AECD002981199C0E90231C0E9004579
:1013800079E70000000014400000F03F300000004A
:101390000000F0430000E03F2DE9FF4F95B09A4672
:1013A000884606460025EEE1252877D10024274609
:1013B000F94A0121039400E0044316F8013F203B61
:1013C00001FA03F01042F7D130782A2811D06FF0DB
:1013D0002F033078A0F13002092A16D8039A44F07E
:1013E000020402EB820203EB42021044761C0390DB
:1013F000EFE758F8042B0392002A03DA504244F432
:101400000054039044F00204761C30782E2816D144
:1014100016F8010F44F004042A280DD06FF02F02B3
:101420003078A0F13003092B09D807EB870302EBD2
:101430004303C718761CF3E758F8047B761C307812
:101440006C280FD006DC4C2817D068280DD06A28ED
:1014500014D104E0742810D07A280FD10DE044F4A0
:1014600000140AE044F4801401E044F4401472785B
:10147000824202D104F58014761C761C30786628EE
:101480000BD013DC582877D009DC002875D045280C
:10149000F6D04628F4D047281AD193E118E0632803
:1014A00035D0642879D0652812D18BE1702873D0AB
:1014B00008DC6728F1D069286FD06E280DD06F281E
:1014C00006D1ACE073282CD0752874D0782853D07E
:1014D0005246179990476D1C54E1C4F302500228FC
:1014E00009D003280DD0D8F8001004280DD00D60C5
:1014F00008F1040846E1D8F80010EA17C1E90052E3
:10150000F6E7D8F800100D80F2E70D70F0E718F854
:10151000041B8DF8001000208DF80100EB4601201F
:1015200003E058F804BB4FF0FF3061074FF00001B3
:1015300002D40DE009F101018946B9420FDA814573
:10154000F8DB1BF809100029F4D108E009F10101CA
:1015500089468142FADB1BF809100029F6D103986D
:101560005346A0EB090721463846179A00F080FA47
:10157000284400EB090507E044E008E10DE01BF812
:10158000010B524617999047B9F10109F7D253461A
:1015900021463846179AF2E039E00A21C4F3025294
:1015A0004FF0000B0091022A06D058F8040BC11727
:1015B000032A09D00AE023E008F1070020F007021F
:1015C000F2E80201904605E000B2C117042A01D1F9
:1015D00040B2C117002906DA0A460021404261EBF9
:1015E00002012D2202E0220504D52B228DF80420D1
:1015F000012203E0E20701D02022F7E7914657E0FD
:101600000A2100E010214FF0000B00910BE01021A7
:101610004FF0000B44F004040827009103E0082079
:101620004FF0000B0090C4F30252022A05D058F884
:10163000040B0021032A08D008E008F1070020F07D
:101640000702F2E80201904603E080B2042A00D1CA
:10165000C0B24FF0000922072AD53278702A07D08D
:10166000DDF800C08CF0100C5CEA0B0C05D00EE02D
:1016700040228DF80420012208E050EA010306D040
:1016800030238DF804308DF8052002229146009B0E
:1016900083F0080353EA0B030AD150EA010201D197
:1016A000620705D530228DF804204FF001097F1E16
:1016B0003278582A04D039A20C920CAA02920BE07C
:1016C0003BA2F9E75B46009AFEF745FF0C9B9B5C4B
:1016D000029A521E0292137050EA0102F2D102984D
:1016E00004A9081A00F1200B600702D524F4803405
:1016F00000E001275F4502DDA7EB0B0000E00020C2
:1017000000EB0B01009003984944401A0390E0035A
:1017100006D453462146179A039800F0A9F90544C8
:10172000002706E001A85246C05D179990476D1C3E
:101730007F1C4F45F6DBE0030CD553462146179A34
:10174000039800F095F9054404E0302052461799BB
:1017500090476D1C0099481E00900029F5DC08E0B8
:101760000298029952460078491C029117999047B5
:101770006D1CBBF10001ABF1010BF1DC5BE100F092
:1017800065F90544761C307800287FF40DAE19B059
:101790002846BDE8F08F00000928010030313233BF
:1017A000343536373839616263646566000000009D
:1017B0003031323334353637383941424344454687
:1017C00000000000600700D4062708F1070020F0A1
:1017D0000700F0E80223804603F0004C5FEA0C00AB
:1017E00001D097A009E0200501D596A005E0E0070B
:1017F00001D095A001E0AFF24C001390307823F0B7
:10180000004365280CD006DC452809D046281DD0A9
:1018100047287FD13BE0662818D067287AD136E088
:101820000021112F01DB112000E0781CCDE900011F
:1018300004A90CA8FFF7EEFCDDE90D010C9A4FF0AE
:10184000000B07F10109109200914EE04FF00040AB
:101850000097CDE9011004A90CA8FFF7DBFCDDE936
:101860000D020C9B0F994FF0000B914610930092C4
:1018700011B9791C00EB0109B7EB090003D4C0F1E1
:10188000FF3B07F10109A9EB0700019042E0012F9E
:1018900000DA01270021112F01DD112000E0384678
:1018A000CDE9000104A90CA8FFF7B4FCDDE90D01A6
:1018B0000C9A00914FF0000BB946109221070FD4FB
:1018C000009A4A4503DA914601E0A9F10109B9F10C
:1018D000010F05DD109AA9F10101515C3029F4D006
:1018E000B84202DA10F1040F03DA0121CDE9011048
:1018F00010E0002803DC8344A9EB000102E0411C56
:10190000494500DD8946A0EB0B00401C01904FF0DB
:1019100000400290200705D40198484502DB4FF0B3
:10192000FF30019000208DF84B0002980DF14B071D
:10193000B0F1004F25D002200C902B200D90029882
:1019400000280CDA404202902D200D9007E00A2179
:101950000298FEF7EAFD3031029007F8011D0C995C
:10196000481E0C900029F2DC02980028EFD1791E65
:101970000D980870307800F0200040F0450007F81E
:10198000020D11A8C01BC01D02901398007800B171
:10199000012000EB0901019801EBE071029801447C
:1019A0000398401A401E0390E00306D45346214694
:1019B000179A039800F05CF805441398007818B162
:1019C0005246179990476D1CE00323D55346214694
:1019D000179A039800F04CF805441BE0BBF1000F88
:1019E00007DB0098584504DD1098179910F80B0094
:1019F00001E0179930205246904701980BF1010BF6
:101A0000401E05F10105019004D12E205246179980
:101A100090476D1CB9F10001A9F10109DEDC05E078
:101A200017F8010B5246179990476D1C0299481EF2
:101A300002900029F4DC53462146179A03989EE64B
:101A40002D0000002B000000200000002DE9F041D7
:101A5000044600251E461746880404D405E039468E
:101A60002020B0476D1C641EF9D52846BDE8F081E2
:101A70002DE9F041044600251E469046C80301D5D5
:101A8000302700E02027880404D505E04146384689
:101A9000B0476D1C641EF9D52846BDE8F0810A6880
:101AA000531C0B601070704710B504466FF00400B3
:101AB000FFF7B4F8E11704EB5171C1F3C701074A0E
:101AC00011701046007800EB4001C1EBC0104FF6DA
:101AD000FF7101EAC0000249088010BD42000020E9
:101AE0004400002070B504464FF4077094FBF0F0FA
:101AF000C6B24FF4077094FBF0F100FB114085B2C1
:101B000005E04FF4077000F009F8701EC6B2002E11
:101B1000F7D115B1284600F001F870BD0146114A11
:101B200012884A434FF0E0235A6100229A611A4614
:101B3000126942F001021A6100BF4FF0E022106901
:101B400000F001021AB100F48032002AF5D04FF003
:101B5000E022126922F001024FF0E0231A61002214
:101B60009A6170474400002070B50446054800782B
:101B7000032805D1034948682146FEF735FB054691
:101B8000284670BD9803002010B500200949087050
:101B900009484860002008814FF4E131042000F03A
:101BA0001BFF042000F0F2FC00210448FFF7BFF8FF
:101BB00010BD0000980300204001002000080040F4
:101BC0000A49097803290FD10221084A117000211E
:101BD0001181002005E00021044A52681154411C83
:101BE00088B2B0F5C87FF6DB70470000980300208C
:101BF00070B504462046FEF709FB85B22A46214609
:101C0000042000F0FBFF022202A1042000F0F6FFF6
:101C100070BD00000D0A00002DE9F04106460D469A
:101C200014460027B8463046FFF7E2FFE4B1DDB1C5
:101C300011E00A20FFF756FF0D48007803280AD16B
:101C40002846FFF791FF074607B109E009A20421E2
:101C5000022000F0B9FA201EA4F101018CB2E8D1F3
:101C600000BF0CB94FF001084046BDE8F08100000C
:101C70009803002077696669206572722100000070
:101C800070B51E240025FF26022004490870142286
:101C900003A104A0FFF7C0FF70BD0000980300205F
:101CA0004F4B00004154000010B5B0B0044685A26F
:101CB000D2E900109268CDE92E022D9184A103C9CA
:101CC000CDE92B0184A2D2E900109268CDE91C0273
:101CD0001B9184A1D1E90023D1E90201CDE90A23B6
:101CE000CDE90C0183A207CA07AB07C314228449BC
:101CF00002A8FEF767FA83480368834883A1026855
:101D00001EA8FFF763FA012C6DD185A200210220E5
:101D100000F05AFA854800680090854803688548B5
:101D200085A102680EA8FFF751FAFFF749FF1422B8
:101D300088A12DA8FFF770FF4FF47A70FFF7D2FE4D
:101D4000FFF73EFF322283A12BA8FFF765FF4FF478
:101D50007A60FFF7C7FEFFF733FF0AE07EA2022199
:101D6000084600F031FA4FF47A70FFF7BBFE00F03E
:101D7000ADF94FF448727BA11EA8FFF74DFF002874
:101D8000ECD14FF47A70FFF7ADFEFFF719FF0AE0D0
:101D900077A20221084600F017FA4FF47A70FFF795
:101DA000A1FE00F093F9C8226AA10EA8FFF734FF44
:101DB0000028EDD14FF47A70FFF794FEFFF700FF93
:101DC000C82264A10AA8FFF727FF4FF47A70FFF733
:101DD00089FEFFF7F5FE32225EA107A8FFF71CFF80
:101DE000FFF7EEFE6BE0032C69D164A20021022014
:101DF00000F0EAF96248634B634A4FA100900EA8D5
:101E0000FFF7E4F9FFF7DCFE142252A12DA8FFF73B
:101E100003FF4FF47A70FFF765FEFFF7D1FE322221
:101E20004CA12BA8FFF7F8FE4FF47A60FFF75AFE9B
:101E3000FFF7C6FE0AE048A20221084600F0C4F9F6
:101E40004FF47A70FFF74EFE00F040F94FF44872FD
:101E500044A11EA8FFF7E0FE0028ECD14FF47A70F1
:101E6000FFF740FEFFF7ACFE0AE041A20221084660
:101E700000F0AAF94FF47A70FFF734FE00F026F96B
:101E8000C82234A10EA8FFF7C7FE0028EDD14FF4F9
:101E90007A70FFF727FEFFF793FEC8222DA10AA84C
:101EA000FFF7BAFE4FF47A70FFF71CFEFFF788FECB
:101EB000322228A107A8FFF7AFFEFFF781FE30B05E
:101EC00010BD000041542B43574D4F44453D310058
:101ED00041542B525354000041542B434946535212
:101EE0000000000041542B4349504D4F44453D31C3
:101EF0000000000041542B43495053454E4400001C
:101F000038400008180000201400002041542B43E2
:101F1000574A41503D222573222C2225732200006E
:101F200074637020636C69656E7400002400002087
:101F3000200000201C00002041542B4349505354E2
:101F40004152543D222573222C222573222C2573C5
:101F5000000000004F4B000077696669206E6574D1
:101F6000000000005749464920474F54204950007F
:101F70007769666920736576657200007564700024
:101F80003B0000202C0000202800002070B50446F3
:101F90000D46E1B2012000F0DDFD204670BD00F0ED
:101FA00001F800001FB52DA30FCB8DE80F004FF4F3
:101FB000A060FEF7D3FCA820FFF776FDFEF7CCFB70
:101FC0004FF41651012000F007FD012000F03EFA09
:101FD00000F034F900F09CF84FF4FA60FFF782FD4E
:101FE00000F074F821A0FFF7E1F8FFF7CDFDFFF74F
:101FF00047FE21A0FFF7DAF80120FFF755FE24A0E5
:10200000FFF7D4F829E00120FEF7DAFB6420FFF7A0
:1020100069FD264840680078552819D12348406852
:102020004078AA2814D121480078032810D120A292
:102030000421022000F0C8F80D226946042000F0B7
:10204000DDFD4FF4FA70FFF74DFDFFF7B9FD04E039
:102050001BA20221084600F0B7F8D4E76573703878
:102060003236362074657374000000007374617238
:102070007421200D0A000000657370383236362056
:1020800069732072756E6E696E6721200D0A0000FB
:1020900065737038323636207374617274207374CD
:1020A00061206D6F646521200D0A000098030020F7
:1020B000776966692072656365697665000000006E
:1020C00077696669206672656500000070B5002456
:1020D000002500BF19E004F1B000C1B2002000F0FB
:1020E00059F90021084600F055F91021002000F0B0
:1020F00051F9002505E00021012000F04BF9681C92
:10210000C5B2802DF7DB601CC4B2082CE3DB70BDC8
:1021100070B5104D00240026B02418E021460020A0
:1021200000F038F91021002000F034F900210846B1
:1021300000F030F9002606E015F8011B012000F040
:1021400029F9701CC6B2802EF6DB601CC4B2B82C14
:10215000E4DB70BD383C00082DE9F04107460E462F
:10216000904600240025A8F12000C5B27F2F02DD93
:102170000027B01CC6B23146384600F0EDF8002406
:1021800008E004EB05100F4A115C012000F002F991
:10219000601CC4B2082CF4DB701CC1B2384600F0DD
:1021A000DBF8002409E004EB05100830054A115C57
:1021B000012000F0EFF8601CC4B2082CF3DBBDE88E
:1021C000F0810000482E00082DE9F04104460F463A
:1021D000154600260EE0AA5D39462046FFF7BCFFF3
:1021E00004F10800C4B2782C02DD0024B81CC7B288
:1021F000701CC6B2A85D0028EDD1BDE8F0810000DA
:102200001CB501210846FEF7B5FB0B20009001200C
:102210008DF8040000208DF8060001208DF80700DD
:1022200002208DF8050069460348FEF7E6FA0B2107
:102230000148FEF74FFB1CBD0000024010B5FFF740
:10224000DFFF01214348FEF745FB0A20FFF74AFC68
:1022500001214048FEF73CFB0A20FFF743FC012127
:102260003C48FEF737FBAE21002000F093F8002138
:10227000084600F08FF81021002000F08BF8402174
:10228000002000F087F88121002000F083F8CF21A2
:10229000002000F07FF8A121002000F07BF8C82189
:1022A000002000F077F8A821002000F073F83F210B
:1022B000002000F06FF8D321002000F06BF800211F
:1022C000084600F067F8D521002000F063F880216F
:1022D000002000F05FF8D921002000F05BF8F12128
:1022E000002000F057F8DA21002000F053F8122106
:1022F000002000F04FF8DB21002000F04BF84021D7
:10230000002000F047F82021002000F043F80221CF
:10231000002000F03FF88D21002000F03BF8142150
:10232000002000F037F8A421002000F033F8A721A6
:10233000002000F02FF8AF21002000F02BF8AF2193
:10234000002000F027F8FFF7C1FE0021084600F04A
:1023500003F810BD0000024070B504460D4605F1BB
:10236000B000C1B2002000F015F8102040EA1411AE
:10237000002000F00FF804F00F0040F001010020F1
:1023800000F008F870BD10B504462146012000F0A9
:102390008FF810BD70B505460C4602210A48FEF7BD
:1023A00097FA25B108210848FEF794FA03E00821BE
:1023B0000548FEF78DFA2046FFF7E5FF02210248A7
:1023C000FEF788FA70BD0000000002401CB504460C
:1023D000012C37D101210846FEF7CCFA052211461F
:1023E0001948FEF752FA052206211748FEF74DFA62
:1023F000052207211448FEF748FAA0200090022089
:102400008DF804008DF8050000208DF806000120ED
:102410008DF8070069460C48FEF7EFF94020009060
:1024200000208DF804008DF8070002208DF80400CC
:102430008DF8050069460448FEF7DFF9E0210248FF
:10244000FEF748FA1CBD00000000024010B586B03F
:102450000446012C27D1FFF7B9FF01210803FEF73D
:10246000A9FA0020ADF804004FF48270ADF8060020
:102470000020ADF80800ADF80A00ADF80C006002CD
:10248000ADF80E003820ADF810000020ADF81200B5
:102490000720ADF8140001A90448FEF729FB01212B
:1024A0000248FEF70BFB06B010BD000000300140F3
:1024B00070B505460E460024012D23D105E0601CB1
:1024C000C4B2C82C01DD012070BD02210E48FEF708
:1024D00001FB0028F3D031460B48FEF707FB002430
:1024E00005E0601CC4B2C82C01DD0120ECE701212D
:1024F0000548FEF7EFFA0028F3D00348FEF7F3FA99
:10250000C0B2E1E70120DFE700300140FEB506463A
:102510000C461546022E0FD101210846FEF73AFA65
:102520000194ADF800500020ADF80800ADF80200AD
:1025300069467007FEF724FC032E0FD1012102200B
:10254000FEF728FA0194ADF800500020ADF808001D
:10255000ADF8020069460B48FEF712FC042E0FD1BD
:1025600001210420FEF716FA0194ADF80050002076
:10257000ADF80800ADF8020069460348FEF700FC1C
:10258000FEBD0000000400400008004010B50446F5
:10259000022C0CD142F2CF0263212046FFF7B6FF96
:1025A000204600F029F801218807FEF7C0FB032C24
:1025B0000DD142F2CF0241F287312046FFF7A6FF4C
:1025C000204600F019F801210948FEF7B0FB042C61
:1025D0000DD142F2CF0240F2E7312046FFF796FFDD
:1025E000204600F009F801210248FEF7A0FB10BDCB
:1025F000000400400008004038B50446022C11D108
:102600001C208DF8000001208DF801008DF80200DB
:102610008DF803006846FEF765F901221146900720
:10262000FEF7A2FB032C12D11D208DF80000032021
:102630008DF801008DF8020001208DF80300684636
:10264000FEF750F9012211460C48FEF78DFB042CD1
:1026500012D11E208DF8000000208DF8010001200D
:102660008DF802008DF803006846FEF73BF9012261
:1026700011460348FEF778FB38BD00000004004017
:10268000000800407FB505460C46012D19D10121F7
:102690001020FEF78FF900940020ADF80400ADF88B
:1026A0000600ADF80800ADF80C000C20ADF80A00EB
:1026B00069463C48FEF704FD01213A48FEF797FCC5
:1026C0006EE0022D19D101214804FEF763F9009450
:1026D0000020ADF80400ADF80600ADF80800ADF834
:1026E0000C000C20ADF80A0069462F48FEF7E8FC04
:1026F00001212D48FEF77BFC52E0032D19D1012169
:102700008804FEF747F900940020ADF80400ADF806
:102710000600ADF80800ADF80C000C20ADF80A007A
:1027200069462248FEF7CCFC01212048FEF75FFCF9
:1027300036E0042D19D10121C804FEF72BF90094CD
:102740000020ADF80400ADF80600ADF80800ADF8C3
:102750000C000C20ADF80A0069461548FEF7B0FCE5
:1027600001211348FEF743FC1AE0052D18D1012181
:102770000805FEF70FF900940020ADF80400ADF84D
:102780000600ADF80800ADF80C000C20ADF80A000A
:1027900069460848FEF794FC01210648FEF727FC2D
:1027A0007FBD000000100140004400400048004090
:1027B000004C0040005000401CB50446012C30D1B4
:1027C00001210846FEF7D6F8072209217E48FEF7C8
:1027D0005CF807220A217C48FEF757F86002009057
:1027E00002208DF805008DF8040000208DF8060009
:1027F00001208DF8070069467348FDF7FEFFA0022F
:10280000009002208DF8050000208DF804008DF85E
:10281000070002208DF8040069466B48FDF7EDFFC4
:10282000D1E0022C30D101210846FEF7A3F807229F
:1028300002216548FEF729F8072203216248FEF7C6
:1028400024F80420009002208DF805008DF8040083
:1028500000208DF8060001208DF8070069465A48CF
:10286000FDF7CBFF0820009002208DF80500002026
:102870008DF804008DF8070002208DF804006946E9
:102880005148FDF7BAFF9EE0032C32D1012102200E
:10289000FEF770F807220A214C48FDF7F6FF0722E1
:1028A0000B214A48FDF7F1FF4FF4806000900220B1
:1028B0008DF805008DF8040000208DF80600012039
:1028C0008DF8070069464148FDF797FF4FF4006017
:1028D000009002208DF8050000208DF804008DF88E
:1028E000070002208DF8040069463848FDF785FF8F
:1028F00069E0042C30D101210420FEF73BF80822C6
:102900000A213348FDF7C1FF08220B213048FDF7AB
:10291000BCFF2002009002208DF805008DF8040015
:1029200000208DF8060001208DF807006946284830
:10293000FDF763FF6002009002208DF80500002083
:102940008DF804008DF8070002208DF80400694618
:102950001F48FDF752FF36E0052C34D10121042039
:10296000FEF708F801210820FEF704F808220C21E0
:102970001748FDF78AFF082202211648FDF785FF58
:102980004FF48050009002208DF805008DF804006F
:1029900000208DF8060001208DF8070069460C48DC
:1029A000FDF72BFF0420009002208DF80500002089
:1029B0008DF804008DF8070002208DF804006946A8
:1029C0000448FDF71AFF1CBD00000240000402404D
:1029D00000080240000C024070B504460D46012C70
:1029E0000AD12046FFF7E8FE29462046FFF74AFEB7
:1029F000204600F035F832E0022C0AD12046FFF7DD
:102A0000DBFE29462046FFF73DFE204600F028F871
:102A100025E0032C0AD12046FFF7CEFE29462046AA
:102A2000FFF730FE204600F01BF818E0042C0AD116
:102A30002046FFF7C1FE29462046FFF723FE204629
:102A400000F00EF80BE0052C09D12046FFF7B4FE8C
:102A500029462046FFF716FE204600F001F870BD1B
:102A600038B50446012C0FD125208DF80000022036
:102A70008DF8010003208DF8020001208DF803007D
:102A80006846FDF72FFF5BE0022C14D126208DF85D
:102A9000000003208DF801008DF8020001208DF860
:102AA00003006846FDF71EFF012240F2255125482C
:102AB000FEF7E0FA44E0032C14D127208DF8000043
:102AC00002208DF801008DF8020001208DF803002E
:102AD0006846FDF707FF012240F225511A48FEF72C
:102AE000C9FA2DE0042C15D134208DF80000022005
:102AF0008DF8010003208DF8020001208DF80300FD
:102B00006846FDF7EFFE012240F225510F48FEF71F
:102B1000B1FA15E0052C13D135208DF80000032003
:102B20008DF801008DF8020001208DF80300684641
:102B3000FDF7D8FE012240F225510548FEF79AFA2A
:102B400038BD00000044004000480040004C0040F8
:102B50000050004070B504460D46012C0BD100BF5B
:102B600040212148FEF74FFA0028F9D029461E4897
:102B7000FEF715FB36E0022C0BD100BF40211B48AD
:102B8000FEF741FA0028F9D029461848FEF707FB5E
:102B900028E0032C0BD100BF40211548FEF733FA83
:102BA0000028F9D029461248FEF7F9FA1AE0042C59
:102BB0000BD100BF40210F48FEF725FA0028F9D0BD
:102BC00029460C48FEF7EBFA0CE0052C0AD100BFB1
:102BD00040210948FEF717FA0028F9D0294606488F
:102BE000FEF7DDFA002070BD0010014000440040F7
:102BF00000480040004C0040005000402DE9F041EA
:102C000007460D461646002405E0295D3846FFF7C5
:102C1000A1FF601C84B2B442F7DB0020BDE8F08164
:102C20000000000000003E0000000000000007005F
:102C3000070000147F147F1400242A7F2A120062E8
:102C40006408132300364955225000000503000094
:102C500000001C224100000041221C000014083E1C
:102C600008140008083E0808000000A060000008E2
:102C70000808080800006060000000201008040236
:102C8000003E5149453E0000427F400000426151F4
:102C90004946002141454B31001814127F1000278E
:102CA00045454539003C4A49493000017109050351
:102CB00000364949493600064949291E0000363682
:102CC00000000000563600000008142241000014E5
:102CD00014141414000041221408000201510906C2
:102CE00000324959513E007C1211127CFFC1D5D5EA
:102CF000D5E9003E41414122007F4141221C007F35
:102D000049494941007F09090901003E4149497A81
:102D1000007F0808087F0000417F410000204041FB
:102D20003F01007F08142241007F40404040007F67
:102D3000020C027F007F0408107F003E4141413EAB
:102D4000007F09090906003E4151215E007F0919F3
:102D500029460046494949310001017F0101003FF0
:102D60004040403F001F2040201F003F4038403F70
:102D700000631408146300070870080700615149D4
:102D8000454300007F41410000552A552A55000067
:102D900041417F00000402010204004040404040E5
:102DA000000001020400002054545478007F48447D
:102DB000443800384444442000384444487F0038B4
:102DC0005454541800087E0901020018A4A4A47CDD
:102DD000007F080404780000447D400000408084A7
:102DE0007D00007F102844000000417F4000007CEF
:102DF00004180478007C08040478003844444438FB
:102E000000FC242424180018242418FC007C080446
:102E1000040800485454542000043F444020003C1F
:102E20004040207C001C2040201C003C4030403CA6
:102E3000004428102844001CA0A0A07C0044645436
:102E40004C4414141414141400000000000000007A
:102E50000000000000000000000000F8000000007A
:102E6000000000333000000000100C06100C0600BB
:102E7000000000000000000040C07840C078400022
:102E8000043F04043F040400007088FC0830000084
:102E9000001820FF211E0000F008F000E0180000DC
:102EA00000211C031E211E0000F008887000000095
:102EB0001E2123241927211010160E0000000000E7
:102EC0000000000000000000000000E01804020004
:102ED000000000071820400000020418E000000075
:102EE0000040201807000000404080F08040400073
:102EF0000202010F01020200000000F000000000C9
:102F00000101011F0101010000000000000000009C
:102F100080B0700000000000000000000000000011
:102F2000000101010101010100000000000000009A
:102F30000030300000000000000000008060180435
:102F4000006018060100000000E010080810E00012
:102F5000000F102020100F00001010F800000000DB
:102F60000020203F20200000007008080888700022
:102F700000302824222130000030088888483000A2
:102F80000018202020110E000000C02010F80000C2
:102F900000070424243F240000F80888880808005B
:102FA0000019212020110E0000E010888818000070
:102FB000000F112020110E0000380808C838080042
:102FC0000000003F000000000070880808887000C2
:102FD000001C222121221C0000E010080810E00043
:102FE0000000312222110F00000000C0C0000000CC
:102FF00000000030300000000000008000000000F1
:1030000000008060000000000000804020100800E8
:1030100000010204081020004040404040404000B1
:10302000040404040404040000081020408000008C
:103030000020100804020100007048080808F00091
:103040000000003036010000C030C828E810E00061
:103050000718272423140B000000C038E0000000EC
:10306000203C23020227382008F888888870000056
:10307000203F202020110E00C0300808080838002A
:10308000071820202010080008F808080810E000A1
:10309000203F202020100F0008F88888E808100042
:1030A000203F20202320180008F88888E808100016
:1030B000203F200003000000C0300808083800004E
:1030C00007182020221E020008F808000008F8084F
:1030D000203F210101213F20000808F808080000D6
:1030E0000020203F2020000000000808F808080009
:1030F000C08080807F00000008F888C02818080081
:10310000203F20012638200008F8080000000000B9
:10311000203F20202020300008F8F800F8F80800B0
:10312000203F003F003F200008F830C00008F808AA
:10313000203F200007183F00E01008080810E000BA
:103140000F10202020100F0008F808080808F000D1
:10315000203F210101010000E01008080810E000F4
:103160000F18242438504F0008F888888888700089
:10317000203F2000030C3020007088080808380029
:103180000038202121221C00180808F8080818001F
:103190000000203F2000000008F808000008F808A0
:1031A000001F202020201F000878880000C8380851
:1031B000000007380E010000F80800F80008F800C9
:1031C000033C0700073C0300081868808068180863
:1031D00020302C03032C30200838C800C8380800E1
:1031E0000000203F2000000010080808C838080030
:1031F0002038262120201800000000FE02020200D4
:103200000000007F40404000000C30C00000000083
:10321000000000010638C00000020202FE000000AB
:10322000004040407F000000000004020202040051
:10323000000000000000000000000000000000008E
:103240008080808080808080000202040000000076
:10325000000000000000000000008080808000006E
:103260000019242222223F2008F80080800000005C
:10327000003F112020110E0000000080808000001F
:10328000000E112020201100000000808088F8002E
:10329000000E112020103F20000080808080000060
:1032A000001F222222221300008080F088888818C4
:1032B0000020203F202000000000808080808000CF
:1032C000006B94949493600008F800808080000064
:1032D000203F210000203F2000809898000000003F
:1032E0000020203F2020000000000080989800006F
:1032F00000C08080807F000008F80000808080008F
:10330000203F24022D302000000808F800000000B3
:103310000020203F2020000080808080808080006E
:10332000203F20003F20003F808000808080000000
:10333000203F210000203F2000008080808000008E
:10334000001F202020201F008080008080000000BF
:1033500080FFA12020110E000000008080808000EE
:10336000000E112020A0FF808080800080808000DF
:1033700020203F212000010000008080808080000C
:103380000033242424241900008080E08080000081
:103390000000001F202000008080000000808000CE
:1033A000001F202020103F2080808000008080802F
:1033B00000010E30080601008080008000808080BF
:1033C0000F300C030C300F000080800080808000E4
:1033D0000020312E0E31200080808000008080800F
:1033E00080818E70180601000080808080808000BF
:1033F0000021302C2221300000000000807C0202DD
:1034000000000000003F404000000000FF000000FE
:1034100000000000FF0000000002027C80000000AD
:103420000040403F000000000006010102020404C9
:10343000000000000000000000000000000000008C
:10344000000000000000000000000000000000007C
:10345000000000000000000000000000000000006C
:10346000000000000000000000000000000000C09C
:10347000E0F0F0703838381818181838383870F00C
:10348000F0E0C000000000000000000000000000AC
:10349000000000000000000000000000000000002C
:1034A000000000000000000000000000000000001C
:1034B000000000000000000000000000000000000C
:1034C00000000000000000000000000000000000FC
:1034D0000000C0C0C0C0C0C0C080808000C0C0C0EC
:1034E000C0C0C0C0C08080808080808080C0C0C1DB
:1034F000C7C7CFCEDEDCDCDCDCDCDCDCDCCECFCF77
:10350000C7C7C1C0808080808080808000000000AC
:1035100000000000000000000000000000000000AB
:10352000000000000000000000000000000000009B
:10353000000000000000000000000000000000008B
:1035400000000000000000000000000000000080FB
:1035500080C0FFFFFFFF7171391B1F1F1F7F7F7F1F
:103560007F7F010101010303070F7F7F7D79010147
:103570000101010101010000000000000101010141
:103580000101010101010103030303030303070711
:1035900007060E0E0E1C1C1C38387070F0E0E0C0E0
:1035A000C08080000000000000000000000000005B
:1035B0000000000000000000000000000000E0E04B
:1035C000E0E06060606060606070787C3E1E0F07C5
:1035D0000703010100000000303838381818183887
:1035E00038383030000000000080C0C0E0F070705B
:1035F000383838381818181C1C1C1C18181838387B
:10360000383870F0E0E0C0C080000000000000002A
:1036100000000000000000000000000000000101A8
:103620000307070F1E3EFCF8F0E0800000000000DA
:103630000000000000000000000000000000FFFF8C
:10364000FFFF00000000000000000000000000007C
:10365000000000000000000000000000000000006A
:1036600000000000000038FEFFFFFF8301000000A3
:103670001038387870F0E0E0E0F07078383C1C1ECC
:103680000E0C0000000183FFFFFFFE0000000000A1
:10369000000000000000000000000000000000002A
:1036A0000000000000000083EFEFEFEEEEEEFE7C86
:1036B0007C380000000000000000000000000F0F38
:1036C0000F0F0C0C0C0C0C0C0C1C3C7CF8F0E0C02C
:1036D000C0800000000000000000000000000000AA
:1036E0000000000000000000010307070F1E1C1C63
:1036F000383838383030303070303030303038385A
:1037000038381C1E0E0F07070301000000000000E0
:1037100000000000000000000000000000000000A9
:1037200080C0C0E0F0F87E3F1F0F030000000000E3
:103730000000000000000000000000000000000089
:103740000000000000000000000000000000010375
:103750000307070F0E1E1C1C38F8F0F0F0000000E5
:103760000000000000000080808080000000000059
:103770000000000000000000000000000000000049
:103780000000000000000080808080000000000039
:1037900000000000E0F0F0F0F8381C1C1E0E0F07CF
:1037A000070303010000000000000000000000000B
:1037B0000000000000000000000000000000000009
:1037C00000000000000000000000000000000000F9
:1037D00000000000000000000003070F0F1E1C1C6B
:1037E000181818181C1C1E0F0F07030303070707E0
:1037F000070707070707070706060707070707075B
:1038000007070707030303070F0F0F1C1C1C1818DB
:1038100018181C1C1F0F0F070300000000000000F9
:103820000000000000000000000000000000000098
:103830000000000000000000000000000000000088
:1038400080C0E0F0F0F0F8F8F8F8F8F8F8F8F8F8D8
:10385000F8F8F8F8F8F8F8F8F8F8F8F8F8F8F8F8E8
:10386000F8F8F8F8F8F8F8F8F8F8F8F8F8F8F8F8D8
:10387000F8F8F8F8F8F8F8F8F8F8F8F8F8F8F8F8C8
:10388000F8F8F8F8F8F8F8F8F8F8F8F8F8F8F8F8B8
:10389000F8F8F8F8F8F8F8F8F8F8F8F8F8F8F8F8A8
:1038A000F0F0E0E0C0800000000000000000000038
:1038B0000000000000000000000000000000FCFF0D
:1038C000FFFFFFFFFFFFFFFFFF1F1F1F1F1F1F1F28
:1038D0001F1F1F1F1F1F1F1F1F1F1F1F1F1F1F1FF8
:1038E0001F1F1F1F1F1F1F1F1F1F1F1F1F1F1F1FE8
:1038F0001F1F1F1F1F1F1F1F1F1F1F1F1F1F1F1FD8
:103900001F1F1F1F1F1F1F1F1F1F1F1F1F1F1F1FC7
:103910001F1F1F1F1F1F1F1F1F1F1F1F1FFFFFFF17
:10392000FFFFFFFFFFFFFE0000000000000000009F
:103930000000000000000000000000000000FFFF89
:10394000FFFFFFFFFFFFFFFFFF0000000000FCFC88
:10395000FCFCFCFCFCFCFCFCFC0000000000FCFC93
:10396000FCFCFCFCFCFCFCFCFC0000000000FCFC83
:10397000FCFCFCFCFCFCFCFC000000000000FCFC6F
:10398000FCFCFCFCFCFCFCFC000000000004FCFC5B
:10399000FCFCFCFCFCFCFCFC0000000000FFFFFF4A
:1039A000FFFFFFFFFFFFFFFEFCFCFCFCF8F8F0E070
:1039B000C000000000000000000000000000FFFF49
:1039C000FFFFFFFFFFFFFFFFFF0000000000FFFF02
:1039D000FFFFFFFFFFFFFFFFFF0000000000FFFFF2
:1039E000FFFFFFFFFFFFFFFFFF0000000000FFFFE2
:1039F000FFFFFFFFFFFFFFFF000000000000FFFFD1
:103A0000FFFFFFFFFFFFFFFF000000000000FFFFC0
:103A1000FFFFFFFFFFFFFFFF0000000000FFFFFFB1
:103A2000FFFFFFFFFFFFFFFFFFFFFFFFFFFFFFFFA6
:103A3000FFFF000000000000000000000000FFFF8A
:103A4000FFFFFFFFFFFFFFFFFF0000000000FFFF81
:103A5000FFFFFFFFFFFFFFFFFF0000000000FFFF71
:103A6000FFFFFFFFFFFFFFFFFF0000000000FFFF61
:103A7000FFFFFFFFFFFFFFFF000000000000FFFF50
:103A8000FFFFFFFFFFFFFFFF000000000000FFFF40
:103A9000FFFFFFFFFFFFFFFF0000000000FFFFFF31
:103AA000FFFFFFFFFFFFFFFFFFFFFFFFFFFFFFFF26
:103AB000FFFF000000000000000000000000FFFF0A
:103AC000FFFFFFFFFFFFFFFFFF0000000000FFFF01
:103AD000FFFFFFFFFFFFFFFFFF0000000000FFFFF1
:103AE000FFFFFFFFFFFFFFFF7F0000000000FFFF61
:103AF000FFFFFFFFFFFFFFFF000000000000FFFFD0
:103B0000FFFFFFFFFFFFFFFF000000000040FFFF7F
:103B1000FFFFFFFFFFFFFFFF0000000000FFFFFFB0
:103B2000FFFFFFFFFFFFFF7F3F3F3F3F1F1F0F07CD
:103B300003000000000000000000000000003FFF44
:103B4000FFFFFFFFFFFFFFFFFFF8F8F8F8F8F8F8B6
:103B5000F8F8F8F8F8F8F8F8F8F8F8F8F8F8F8F8E5
:103B6000F8F8F8F8F8F8F8F8F8F8F8F8F8F8F8F8D5
:103B7000F8F8F8F8F8F8F8F8F8F8F8F8F8F8F8F8C5
:103B8000F8F8F8F8F8F8F8F8F8F8F8F8F8F8F8F8B5
:103B9000F8F8F8F8F8F8F8F8F8F8F8F8F8FFFFFF90
:103BA000FFFFFFFFFFFF7F0000000000000000009C
:103BB0000000000000000000000000000000000005
:103BC0000103070F0F0F1F1F1F1F1F1F1F1F1F1F87
:103BD0001F1F1F1F1F1F1F1F1F1F1F1F1F1F1F1FF5
:103BE0001F1F1F1F1F1F1F1F1F1F1F1F1F1F1F1FE5
:103BF0001F1F1F1F1F1F1F1F1F1F1F1F1F1F1F1FD5
:103C00001F1F1F1F1F1F1F1F1F1F1F1F1F1F1F1FC4
:103C10001F1F1F1F1F1F1F1F1F1F1F1F1F1F1F1FB4
:103C20000F0F070703010000000000000000000064
:103C30000000000000000000000000000000000084
:103C40000000000000000000000000000000000074
:103C50000000000000000000000000000000000064
:103C60000000000000000000000000000000000054
:103C70000000000000000000000000000000000044
:103C80000000000000000000000000000000000034
:103C90000080C0C0E06060303030101818F8F8F8CC
:103CA000F80000000000000000000000000000001C
:103CB0000000000000000000000000000000000004
:103CC00000000000000000000000000000000000F4
:103CD00000000000000000000000000000000000E4
:103CE00000000000000000000000000000000000D4
:103CF00000000000000000000000000000000000C4
:103D0000000000000080C0E0F078381C0C0C0606B3
:103D1000070303010000000000000000000103038E
:103D200003236363626226060E0C1C3838F0E0E061
:103D3000C080000000000000000000000000000043
:103D40000000000000000000000000000000000073
:103D500000000080808080808080C0808080800023
:103D60000000000000000000000000000000000053
:103D70000000000000000000000000000000000043
:103D80000080C0F0FE7F3F37606060C0C0C08080B0
:103D900080808000000000000000000000000000A3
:103DA000808080C0C0C0C0C0C040606070393F1F0C
:103DB0000F030000000000000000000000000000F1
:103DC0000080C0C0E0703038181C8C8CC6C666639A
:103DD00073333319191919090C0C0C0C0F0707034D
:103DE00000000000000000000000000000000000D3
:103DF00000000080808080000020607038381C0E39
:103E00000F0703030303060606040C0C0C0C081929
:103E100019191919111313333333333333333F3F24
:103E20003F79F1E0C08000000000000000000000C9
:103E30000000000000000000000000000000F0FC96
:103E4000FF3F070100C0F8FCFE0F07030100000060
:103E500000000000000000000000000080C0C0E082
:103E6000607030301818180C0C0C0C04060606068E
:103E70000303030101010000000000000000000036
:103E80000000000000000000000000000000000032
:103E90000000000000000000000000000000000022
:103EA00000000083FFFFFE3800000000000000005B
:103EB00000000000000000000000000000000119E8
:103EC00079F8F0C080000F1F3F7CF0C0C080000078
:103ED000000000000000C0F0F8FE1F0F0301010009
:103EE00000000000000000000000000000000000D2
:103EF00000000000000000000000000000000000C2
:103F00000000000000000000000010F0F0F0C08091
:103F100000000000000000000000000000E0F0F0E1
:103F2000F81C0E0F07030000000000000000000056
:103F30000000000000000000000000000000000081
:103F400000000103070F0E1C3838706161C3C3C73E
:103F500086868C0C0C181F1F1F1F0000000000001D
:103F60000000000000000000000000000000000051
:103F7000000000000000808080808080C0C0C0C041
:103F8000C0C0C0C0E0E0E0F0B0B89C9F0F07070FD2
:103F90001F7CF8F0C08000000000000000E3F3F395
:103FA000F38080000000000000000000000000001E
:103FB0000000000000000000000000000000000001
:103FC00000000000000000000000000000000001F0
:103FD0000101010303030306060606060606060C96
:103FE0000C0C181818181818181818181818181869
:103FF0001818181818181818181818181818181841
:104000001818181818181818191919191B1F1F1E15
:104010001C000001070F0F1C181818181818191980
:104020001919191B1B131E1E1C1C00000000000088
:10403000000000000000000078400008B8400008C0
:10404000AC400008684000089C40000848554157B3
:104050004549204D617465203230000078797A310D
:10406000333134323000000041542B4349504D4F1E
:1040700044453D310000000041542B43574D4F440F
:10408000453D31003139322E3136382E34332E3120
:1040900038320000353030303300000041542B43BB
:1040A000495053454E4400005443500041542B4363
:1040B000494653520000000041542B525354000013
:1040C000E0400008000000204C000000F41100084F
:1040D0002C4100084C000020640700000412000876
:1040E000000000000102030401020304060708099E
:1040F000000000004C4000085C400008A840000898
:104100008440000894400008554450003139322E54
:104110003136382E34332E323230003530303034B0
:0C41200000000000000000000000000093
:040000050800018965
:00000001FF
